{
  "address": "0x985b7515CC76fd173F42957A76D39300a6e2b64e",
  "abi": [
    {
      "inputs": [],
      "name": "Dispas__InsufficientValue",
      "type": "error"
    },
    {
      "inputs": [
        {
          "internalType": "address",
          "name": "recipient",
          "type": "address"
        },
        {
          "internalType": "uint256",
          "name": "amount",
          "type": "uint256"
        }
      ],
      "name": "Dispas__TransferFailed",
      "type": "error"
    },
    {
      "inputs": [],
      "name": "Dispas__ZeroAddress",
      "type": "error"
    },
    {
      "inputs": [],
      "name": "Dispas__ZeroAmount",
      "type": "error"
    },
    {
      "anonymous": false,
      "inputs": [
        {
          "indexed": true,
          "internalType": "address",
          "name": "sender",
          "type": "address"
        },
        {
          "indexed": false,
          "internalType": "uint256",
          "name": "totalAmount",
          "type": "uint256"
        }
      ],
      "name": "FundsDistributed",
      "type": "event"
    },
    {
      "anonymous": false,
      "inputs": [
        {
          "indexed": true,
          "internalType": "address",
          "name": "recipient",
          "type": "address"
        },
        {
          "indexed": false,
          "internalType": "uint256",
          "name": "amount",
          "type": "uint256"
        }
      ],
      "name": "PaymentSent",
      "type": "event"
    },
    {
      "inputs": [
        {
          "components": [
            {
              "internalType": "address",
              "name": "recipient",
              "type": "address"
            },
            {
              "internalType": "uint256",
              "name": "amount",
              "type": "uint256"
            }
          ],
          "internalType": "struct DataTypes.Payment[]",
          "name": "payments",
          "type": "tuple[]"
        }
      ],
      "name": "distributeFunds",
      "outputs": [],
      "stateMutability": "payable",
      "type": "function"
    },
    {
      "stateMutability": "payable",
      "type": "receive"
    }
  ],
  "transactionHash": "0x0bc16bb2d65649854ceef5c82c0f310da1e7c1fa841415b29f6d68f34ad2848a",
  "args": [],
  "numDeployments": 1,
  "solcInputHash": "9f23913ed947eb92e84af0f8e27df09c",
  "bytecode": "0x6080806040523460155761028c908161001b8239f35b600080fdfe6080604052600436101561005e575b361561001957600080fd5b60405162461bcd60e51b815260206004820152601b60248201527f446972656374206465706f73697473206e6f7420616c6c6f77656400000000006044820152606490fd5b60003560e01c63e88250540361000e57602036600319011261023d5760043567ffffffffffffffff811161023d573660238201121561023d5780600401359067ffffffffffffffff821161023d573660248360061b8301011161023d576000805b8381101561020f576000600682901b840160248101906001600160a01b036100e683610242565b161561020057604401359081156101f1578185018095116101dd578434106101ce57828080808561011686610242565b5af1903d156101c5573d67ffffffffffffffff81116101b15760405190601f8101601f19908116603f0116820167ffffffffffffffff81118382101761019d57604052815261016d91903d9086906020013e610242565b901561017e575050506001016100bf565b6311f7d79f60e01b83526001600160a01b031660045260245260449150fd5b634e487b7160e01b87526041600452602487fd5b634e487b7160e01b85526041600452602485fd5b61016d90610242565b633791e31960e01b8352600483fd5b634e487b7160e01b83526011600452602483fd5b632bc59a5360e01b8352600483fd5b6339e0d96d60e01b8352600483fd5b6040513481527f26536799ace2c3dbe12e638ec3ade6b4173dcf1289be0a58d51a5003015649bd60203392a2005b600080fd5b356001600160a01b038116810361023d579056fea2646970667358221220d8098befcea00835bdda6b3d54c65b5b2148c61eff62581580be0552fa3c0b9464736f6c634300081c0033",
  "devdoc": {
    "author": "Valentine Orga",
    "details": "Uses a single loop for efficiency, calldata structs to minimize gas, and robust error handling.",
    "events": {
      "FundsDistributed(address,uint256)": {
        "params": {
          "sender": "The address that initiated the distribution.",
          "totalAmount": "The total LYX amount distributed."
        }
      },
      "PaymentSent(address,uint256)": {
        "params": {
          "amount": "The amount of LYX sent.",
          "recipient": "The address that received the payment."
        }
      }
    },
    "kind": "dev",
    "methods": {
      "distributeFunds((address,uint256)[])": {
        "details": "Requires that each recipient is a valid address and receives a non-zero amount.      The total distributed amount must match `msg.value`.",
        "params": {
          "payments": "An array of `Payment` structs containing recipient addresses and corresponding amounts."
        }
      }
    },
    "title": "Dispas - A Gas-Efficient LYX Distributor",
    "version": 1
  },
  "userdoc": {
    "events": {
      "FundsDistributed(address,uint256)": {
        "notice": "Emitted when LYX is successfully distributed to multiple recipients."
      },
      "PaymentSent(address,uint256)": {
        "notice": "Emitted when a single recipient successfully receives LYX."
      }
    },
    "kind": "user",
    "methods": {
      "distributeFunds((address,uint256)[])": {
        "notice": "Distributes LYX to multiple recipients."
      }
    },
    "notice": "This contract allows users to split LYX payments among multiple recipients.",
    "version": 1
  },
  "storageLayout": {
    "storage": [],
    "types": null
  }
}